{
  "contractName": "Lottery",
  "abi": [
    {
      "inputs": [],
      "stateMutability": "nonpayable",
      "type": "constructor"
    },
    {
      "anonymous": false,
      "inputs": [
        {
          "indexed": false,
          "internalType": "uint256",
          "name": "index",
          "type": "uint256"
        },
        {
          "indexed": false,
          "internalType": "address",
          "name": "bettor",
          "type": "address"
        },
        {
          "indexed": false,
          "internalType": "uint256",
          "name": "amount",
          "type": "uint256"
        },
        {
          "indexed": false,
          "internalType": "bytes1",
          "name": "challenges",
          "type": "bytes1"
        },
        {
          "indexed": false,
          "internalType": "uint256",
          "name": "answerBlockNumber",
          "type": "uint256"
        }
      ],
      "name": "BET",
      "type": "event"
    },
    {
      "anonymous": false,
      "inputs": [
        {
          "indexed": false,
          "internalType": "uint256",
          "name": "index",
          "type": "uint256"
        },
        {
          "indexed": false,
          "internalType": "address",
          "name": "bettor",
          "type": "address"
        },
        {
          "indexed": false,
          "internalType": "uint256",
          "name": "amount",
          "type": "uint256"
        },
        {
          "indexed": false,
          "internalType": "bytes1",
          "name": "challenges",
          "type": "bytes1"
        },
        {
          "indexed": false,
          "internalType": "bytes1",
          "name": "answer",
          "type": "bytes1"
        },
        {
          "indexed": false,
          "internalType": "uint256",
          "name": "answerBlockNumber",
          "type": "uint256"
        }
      ],
      "name": "DRAW",
      "type": "event"
    },
    {
      "anonymous": false,
      "inputs": [
        {
          "indexed": false,
          "internalType": "uint256",
          "name": "index",
          "type": "uint256"
        },
        {
          "indexed": false,
          "internalType": "address",
          "name": "bettor",
          "type": "address"
        },
        {
          "indexed": false,
          "internalType": "uint256",
          "name": "amount",
          "type": "uint256"
        },
        {
          "indexed": false,
          "internalType": "bytes1",
          "name": "challenges",
          "type": "bytes1"
        },
        {
          "indexed": false,
          "internalType": "bytes1",
          "name": "answer",
          "type": "bytes1"
        },
        {
          "indexed": false,
          "internalType": "uint256",
          "name": "answerBlockNumber",
          "type": "uint256"
        }
      ],
      "name": "FAIL",
      "type": "event"
    },
    {
      "anonymous": false,
      "inputs": [
        {
          "indexed": false,
          "internalType": "uint256",
          "name": "index",
          "type": "uint256"
        },
        {
          "indexed": false,
          "internalType": "address",
          "name": "bettor",
          "type": "address"
        },
        {
          "indexed": false,
          "internalType": "uint256",
          "name": "amount",
          "type": "uint256"
        },
        {
          "indexed": false,
          "internalType": "bytes1",
          "name": "challenges",
          "type": "bytes1"
        },
        {
          "indexed": false,
          "internalType": "uint256",
          "name": "answerBlockNumber",
          "type": "uint256"
        }
      ],
      "name": "REFUND",
      "type": "event"
    },
    {
      "anonymous": false,
      "inputs": [
        {
          "indexed": false,
          "internalType": "uint256",
          "name": "index",
          "type": "uint256"
        },
        {
          "indexed": false,
          "internalType": "address",
          "name": "bettor",
          "type": "address"
        },
        {
          "indexed": false,
          "internalType": "uint256",
          "name": "amount",
          "type": "uint256"
        },
        {
          "indexed": false,
          "internalType": "bytes1",
          "name": "challenges",
          "type": "bytes1"
        },
        {
          "indexed": false,
          "internalType": "bytes1",
          "name": "answer",
          "type": "bytes1"
        },
        {
          "indexed": false,
          "internalType": "uint256",
          "name": "answerBlockNumber",
          "type": "uint256"
        }
      ],
      "name": "WIN",
      "type": "event"
    },
    {
      "inputs": [],
      "name": "answerForTest",
      "outputs": [
        {
          "internalType": "bytes32",
          "name": "",
          "type": "bytes32"
        }
      ],
      "stateMutability": "view",
      "type": "function",
      "constant": true
    },
    {
      "inputs": [],
      "name": "owner",
      "outputs": [
        {
          "internalType": "address payable",
          "name": "",
          "type": "address"
        }
      ],
      "stateMutability": "view",
      "type": "function",
      "constant": true
    },
    {
      "inputs": [],
      "name": "getPot",
      "outputs": [
        {
          "internalType": "uint256",
          "name": "pot",
          "type": "uint256"
        }
      ],
      "stateMutability": "view",
      "type": "function",
      "constant": true
    },
    {
      "inputs": [
        {
          "internalType": "bytes1",
          "name": "challenges",
          "type": "bytes1"
        }
      ],
      "name": "betAndDistribute",
      "outputs": [
        {
          "internalType": "bool",
          "name": "result",
          "type": "bool"
        }
      ],
      "stateMutability": "payable",
      "type": "function",
      "payable": true
    },
    {
      "inputs": [
        {
          "internalType": "bytes1",
          "name": "challenges",
          "type": "bytes1"
        }
      ],
      "name": "bet",
      "outputs": [
        {
          "internalType": "bool",
          "name": "result",
          "type": "bool"
        }
      ],
      "stateMutability": "payable",
      "type": "function",
      "payable": true
    },
    {
      "inputs": [],
      "name": "distribute",
      "outputs": [],
      "stateMutability": "nonpayable",
      "type": "function"
    },
    {
      "inputs": [
        {
          "internalType": "bytes32",
          "name": "answer",
          "type": "bytes32"
        }
      ],
      "name": "setAnswerForTest",
      "outputs": [
        {
          "internalType": "bool",
          "name": "result",
          "type": "bool"
        }
      ],
      "stateMutability": "nonpayable",
      "type": "function"
    },
    {
      "inputs": [
        {
          "internalType": "bytes1",
          "name": "challenges",
          "type": "bytes1"
        },
        {
          "internalType": "bytes32",
          "name": "answer",
          "type": "bytes32"
        }
      ],
      "name": "isMatch",
      "outputs": [
        {
          "internalType": "enum Lottery.BettingResult",
          "name": "",
          "type": "uint8"
        }
      ],
      "stateMutability": "pure",
      "type": "function",
      "constant": true
    },
    {
      "inputs": [
        {
          "internalType": "uint256",
          "name": "index",
          "type": "uint256"
        }
      ],
      "name": "getBetInfo",
      "outputs": [
        {
          "internalType": "uint256",
          "name": "answerBlockNumber",
          "type": "uint256"
        },
        {
          "internalType": "address",
          "name": "bettor",
          "type": "address"
        },
        {
          "internalType": "bytes1",
          "name": "challenges",
          "type": "bytes1"
        }
      ],
      "stateMutability": "view",
      "type": "function",
      "constant": true
    }
  ],
  "bytecode": "0x60806040526000600560006101000a81548160ff02191690831515021790555034801561002b57600080fd5b5033600360006101000a81548173ffffffffffffffffffffffffffffffffffffffff021916908373ffffffffffffffffffffffffffffffffffffffff1602179055506115018061007c6000396000f3fe6080604052600436106100865760003560e01c80638da5cb5b116100595780638da5cb5b1461020157806399a167d714610258578063e16ea857146102e1578063e4fc6b6d14610349578063f4b46f5b1461036057610086565b8063403c9fa81461008b5780637009fa36146100b657806379141f801461010957806384f7e4f0146101d6575b600080fd5b34801561009757600080fd5b506100a06103c8565b6040518082815260200191505060405180910390f35b3480156100c257600080fd5b506100ef600480360360208110156100d957600080fd5b81019080803590602001909291905050506103d2565b604051808215151515815260200191505060405180910390f35b34801561011557600080fd5b506101426004803603602081101561012c57600080fd5b810190808035906020019092919050505061048a565b604051808481526020018373ffffffffffffffffffffffffffffffffffffffff1673ffffffffffffffffffffffffffffffffffffffff168152602001827effffffffffffffffffffffffffffffffffffffffffffffffffffffffffffff19167effffffffffffffffffffffffffffffffffffffffffffffffffffffffffffff19168152602001935050505060405180910390f35b3480156101e257600080fd5b506101eb61058f565b6040518082815260200191505060405180910390f35b34801561020d57600080fd5b50610216610595565b604051808273ffffffffffffffffffffffffffffffffffffffff1673ffffffffffffffffffffffffffffffffffffffff16815260200191505060405180910390f35b34801561026457600080fd5b506102bd6004803603604081101561027b57600080fd5b8101908080357effffffffffffffffffffffffffffffffffffffffffffffffffffffffffffff19169060200190929190803590602001909291905050506105bb565b604051808260028111156102cd57fe5b60ff16815260200191505060405180910390f35b61032f600480360360208110156102f757600080fd5b8101908080357effffffffffffffffffffffffffffffffffffffffffffffffffffffffffffff19169060200190929190505050610896565b604051808215151515815260200191505060405180910390f35b34801561035557600080fd5b5061035e6108b3565b005b6103ae6004803603602081101561037657600080fd5b8101908080357effffffffffffffffffffffffffffffffffffffffffffffffffffffffffffff19169060200190929190505050610f8d565b604051808215151515815260200191505060405180910390f35b6000600454905090565b6000600360009054906101000a900473ffffffffffffffffffffffffffffffffffffffff1673ffffffffffffffffffffffffffffffffffffffff163373ffffffffffffffffffffffffffffffffffffffff161461047a576040517f08c379a000000000000000000000000000000000000000000000000000000000815260040180806020018281038252602b8152602001806114a1602b913960400191505060405180910390fd5b8160068190555060019050919050565b6000806000610497611447565b60026000868152602001908152602001600020604051806060016040529081600082015481526020016001820160009054906101000a900473ffffffffffffffffffffffffffffffffffffffff1673ffffffffffffffffffffffffffffffffffffffff1673ffffffffffffffffffffffffffffffffffffffff1681526020016001820160149054906101000a900460f81b7effffffffffffffffffffffffffffffffffffffffffffffffffffffffffffff19167effffffffffffffffffffffffffffffffffffffffffffffffffffffffffffff1916815250509050806000015193508060200151925080604001519150509193909250565b60065481565b600360009054906101000a900473ffffffffffffffffffffffffffffffffffffffff1681565b60008083905060008490506000846000602081106105d557fe5b1a60f81b90506000856000602081106105ea57fe5b1a60f81b90506004847effffffffffffffffffffffffffffffffffffffffffffffffffffffffffffff1916901c93506004847effffffffffffffffffffffffffffffffffffffffffffffffffffffffffffff1916901b93506004827effffffffffffffffffffffffffffffffffffffffffffffffffffffffffffff1916901c91506004827effffffffffffffffffffffffffffffffffffffffffffffffffffffffffffff1916901b91506004837effffffffffffffffffffffffffffffffffffffffffffffffffffffffffffff1916901b92506004837effffffffffffffffffffffffffffffffffffffffffffffffffffffffffffff1916901c92506004817effffffffffffffffffffffffffffffffffffffffffffffffffffffffffffff1916901b90506004817effffffffffffffffffffffffffffffffffffffffffffffffffffffffffffff1916901c9050837effffffffffffffffffffffffffffffffffffffffffffffffffffffffffffff1916827effffffffffffffffffffffffffffffffffffffffffffffffffffffffffffff19161480156107ce5750827effffffffffffffffffffffffffffffffffffffffffffffffffffffffffffff1916817effffffffffffffffffffffffffffffffffffffffffffffffffffffffffffff1916145b156107e0576001945050505050610890565b837effffffffffffffffffffffffffffffffffffffffffffffffffffffffffffff1916827effffffffffffffffffffffffffffffffffffffffffffffffffffffffffffff191614806108755750827effffffffffffffffffffffffffffffffffffffffffffffffffffffffffffff1916817effffffffffffffffffffffffffffffffffffffffffffffffffffffffffffff1916145b15610887576002945050505050610890565b60009450505050505b92915050565b60006108a182610f8d565b506108aa6108b3565b60019050919050565b6000806108be611447565b60008060015494505b600054851015610f7f5760026000868152602001908152602001600020604051806060016040529081600082015481526020016001820160009054906101000a900473ffffffffffffffffffffffffffffffffffffffff1673ffffffffffffffffffffffffffffffffffffffff1673ffffffffffffffffffffffffffffffffffffffff1681526020016001820160149054906101000a900460f81b7effffffffffffffffffffffffffffffffffffffffffffffffffffffffffffff19167effffffffffffffffffffffffffffffffffffffffffffffffffffffffffffff19168152505092506109b9836000015161115e565b9150600060028111156109c857fe5b8260028111156109d457fe5b1415610e3b5760006109e984600001516111ae565b90506109f98460400151826105bb565b915060016002811115610a0857fe5b826002811115610a1457fe5b1415610b6d57610a3384602001516611c37937e08000600454016111d6565b945060006004819055507f8219079e2d6c1192fb0ff7f78e6faaf5528ad6687e69749205d87bd4b156912b86856020015187876040015185600060208110610a7757fe5b1a60f81b8960000151604051808781526020018673ffffffffffffffffffffffffffffffffffffffff1673ffffffffffffffffffffffffffffffffffffffff168152602001858152602001847effffffffffffffffffffffffffffffffffffffffffffffffffffffffffffff19167effffffffffffffffffffffffffffffffffffffffffffffffffffffffffffff19168152602001837effffffffffffffffffffffffffffffffffffffffffffffffffffffffffffff19167effffffffffffffffffffffffffffffffffffffffffffffffffffffffffffff19168152602001828152602001965050505050505060405180910390a15b60006002811115610b7a57fe5b826002811115610b8657fe5b1415610cd4576611c37937e080006004600082825401925050819055507f3b19d607433249d2ebc766ae82ca3848e9c064f1febb5147bc6e5b21d0adebc58685602001516000876040015185600060208110610bde57fe5b1a60f81b8960000151604051808781526020018673ffffffffffffffffffffffffffffffffffffffff1673ffffffffffffffffffffffffffffffffffffffff168152602001858152602001847effffffffffffffffffffffffffffffffffffffffffffffffffffffffffffff19167effffffffffffffffffffffffffffffffffffffffffffffffffffffffffffff19168152602001837effffffffffffffffffffffffffffffffffffffffffffffffffffffffffffff19167effffffffffffffffffffffffffffffffffffffffffffffffffffffffffffff19168152602001828152602001965050505050505060405180910390a15b600280811115610ce057fe5b826002811115610cec57fe5b1415610e3957610d0784602001516611c37937e080006111d6565b94507f72ec2e949e4fad9380f9d5db3e2ed0e71cf22c51d8d66424508bdc761a3f4b0e86856020015187876040015185600060208110610d4357fe5b1a60f81b8960000151604051808781526020018673ffffffffffffffffffffffffffffffffffffffff1673ffffffffffffffffffffffffffffffffffffffff168152602001858152602001847effffffffffffffffffffffffffffffffffffffffffffffffffffffffffffff19167effffffffffffffffffffffffffffffffffffffffffffffffffffffffffffff19168152602001837effffffffffffffffffffffffffffffffffffffffffffffffffffffffffffff19167effffffffffffffffffffffffffffffffffffffffffffffffffffffffffffff19168152602001828152602001965050505050505060405180910390a15b505b60016002811115610e4857fe5b826002811115610e5457fe5b1415610e5f57610f7f565b600280811115610e6b57fe5b826002811115610e7757fe5b1415610f6857610e9283602001516611c37937e080006111d6565b93507f59c0185881271a0f53d43e6ab9310091408f9e0ff9ae2512613de800f26b8de48584602001518686604001518760000151604051808681526020018573ffffffffffffffffffffffffffffffffffffffff1673ffffffffffffffffffffffffffffffffffffffff168152602001848152602001837effffffffffffffffffffffffffffffffffffffffffffffffffffffffffffff19167effffffffffffffffffffffffffffffffffffffffffffffffffffffffffffff191681526020018281526020019550505050505060405180910390a15b610f718561129f565b5084806001019550506108c7565b846001819055505050505050565b60006611c37937e08000341461100b576040517f08c379a000000000000000000000000000000000000000000000000000000000815260040180806020018281038252600e8152602001807f4e6f7420656e6f7567682045544800000000000000000000000000000000000081525060200191505060405180910390fd5b61101482611303565b611086576040517f08c379a000000000000000000000000000000000000000000000000000000000815260040180806020018281038252601a8152602001807f4661696c20746f206164642061206e65772042657420496e666f00000000000081525060200191505060405180910390fd5b7f100791de9f40bf2d56ffa6dc5597d2fd0b2703ea70bc7548cd74c04f5d215ab760016000540333348560034301604051808681526020018573ffffffffffffffffffffffffffffffffffffffff1673ffffffffffffffffffffffffffffffffffffffff168152602001848152602001837effffffffffffffffffffffffffffffffffffffffffffffffffffffffffffff19167effffffffffffffffffffffffffffffffffffffffffffffffffffffffffffff191681526020018281526020019550505050505060405180910390a160019050919050565b600081431180156111725750816101000143105b1561118057600090506111a9565b81431161119057600190506111a9565b610100820143106111a457600290506111a9565b600290505b919050565b6000600560009054906101000a900460ff166111cc576006546111cf565b81405b9050919050565b60008060009050600081840390508473ffffffffffffffffffffffffffffffffffffffff166108fc829081150290604051600060405180830381858888f1935050505015801561122a573d6000803e3d6000fd5b50600360009054906101000a900473ffffffffffffffffffffffffffffffffffffffff1673ffffffffffffffffffffffffffffffffffffffff166108fc839081150290604051600060405180830381858888f19350505050158015611293573d6000803e3d6000fd5b50809250505092915050565b6000600260008381526020019081526020016000206000808201600090556001820160006101000a81549073ffffffffffffffffffffffffffffffffffffffff02191690556001820160146101000a81549060ff0219169055505060019050919050565b600061130d611447565b33816020019073ffffffffffffffffffffffffffffffffffffffff16908173ffffffffffffffffffffffffffffffffffffffff1681525050600343018160000181815250508281604001907effffffffffffffffffffffffffffffffffffffffffffffffffffffffffffff191690817effffffffffffffffffffffffffffffffffffffffffffffffffffffffffffff1916815250508060026000805481526020019081526020016000206000820151816000015560208201518160010160006101000a81548173ffffffffffffffffffffffffffffffffffffffff021916908373ffffffffffffffffffffffffffffffffffffffff16021790555060408201518160010160146101000a81548160ff021916908360f81c021790555090505060008081548092919060010191905055506001915050919050565b604051806060016040528060008152602001600073ffffffffffffffffffffffffffffffffffffffff16815260200160007effffffffffffffffffffffffffffffffffffffffffffffffffffffffffffff19168152509056fe4f6e6c79206f776e65722063616e207365742074686520616e7377657220666f722074657374206d6f6465a26469706673582212205f5b04d0e259612f1f442dadc6e969ba5119104639f5ab4e672ac5890e151e7964736f6c63430006000033",
  "source": "// pragma solidity >=0.4.22 <0.9.0;\r\npragma solidity ^0.6.0;\r\n\r\ncontract Lottery {\r\n    struct BetInfo {\r\n        uint256 answerBlockNumber;  // 정답 블록 넘버\r\n        address payable bettor;     // 정답 시 여기로 돈을 보냄\r\n        byte challenges;            // 문제, 0xab....\r\n    }\r\n\r\n    // 맵을 이용하여 선형 큐 설계 (다이나믹 리스트 or 큐로 가능)\r\n    uint256 private _tail;\r\n    uint256 private _head;\r\n    mapping (uint256 => BetInfo) private _bets; // 여기로 값이 들어오면 tail이 증가하고, 검증은 head부터 시작\r\n    \r\n    address payable public owner;\r\n\r\n    // 상수 정의\r\n    uint256 constant internal BLOCK_LIMIT = 256; // 블록 해쉬 제한\r\n    uint256 constant internal BET_BLOCK_INTERVAL = 3; // +3번째 규칙 추가, 유저가 던진 트랜잭션이 들어가는 블록 +3의 블록해쉬\r\n    uint256 constant internal BET_AMOUNT = 5 * 10 ** 15; // 배팅 금액을 0.005 ETH로 고정\r\n\r\n    uint256 private _pot; // 팟머니 저장소\r\n\r\n    // blockhash()는 랜덤값이기 때문에 테스트에 별로 좋지 않음\r\n    // 그래서 간단한 모드를 만들어 바꿔가면서 테스트 진행\r\n    bool private mode = false; // false: use answer for test\r\n    bytes32 public answerForTest; // true: use real block hash\r\n\r\n    // enum\r\n    enum BlockStatus { Checkable, NotRevealed, BlockLimitPassed }\r\n    enum BettingResult { Fail, Win, Draw }\r\n\r\n    // event\r\n    event BET(uint256 index, address bettor, uint256 amount, byte challenges, uint256 answerBlockNumber);\r\n    event WIN(uint256 index, address bettor, uint256 amount, byte challenges, byte answer, uint256 answerBlockNumber);\r\n    event FAIL(uint256 index, address bettor, uint256 amount, byte challenges, byte answer, uint256 answerBlockNumber);\r\n    event DRAW(uint256 index, address bettor, uint256 amount, byte challenges, byte answer, uint256 answerBlockNumber);\r\n    event REFUND(uint256 index, address bettor, uint256 amount, byte challenges, uint256 answerBlockNumber);\r\n\r\n    constructor() public {\r\n        owner = msg.sender;\r\n    }\r\n\r\n    // function getSomeValue() public pure returns(uint256 value) {\r\n    //     return 5;\r\n    // }\r\n\r\n    function getPot() public view returns(uint256 pot) {\r\n        return _pot;\r\n    }\r\n\r\n    /**\r\n     * @dev 배팅과 정답 체크를 함\r\n     * @param challenges 배팅 시 유저가 보내는 글자\r\n     * return : 함수가 잘 수행되었는지 확인하는 bool값\r\n     */\r\n    function betAndDistribute(byte challenges) public payable returns (bool result) {\r\n        bet(challenges);\r\n        distribute();\r\n\r\n        return true;\r\n    }\r\n\r\n    /**\r\n     * @dev 배팅 시 유저는 0.005 ETH와 1 byte 크기의 배팅용 글자를 보내야 함\r\n     * @param challenges 배팅 시 유저가 보내는 글자\r\n     * return : 함수가 잘 수행되었는지 확인하는 bool값\r\n     * 큐에 저장 된 배팅 정보는 이후 distribute 함수에서 해결 됨\r\n     */\r\n    // Bet(배팅)\r\n    function bet(byte challenges) public payable returns (bool result) {\r\n        // 돈이 제대로 들어오는지 확인\r\n        require(msg.value == BET_AMOUNT, \"Not enough ETH\");\r\n\r\n        // 배팅 정보를 큐에 저장\r\n        require(pushBet(challenges), \"Fail to add a new Bet Info\");\r\n\r\n        // 이벤트 로그 출력\r\n        emit BET(_tail - 1, msg.sender, msg.value, challenges, block.number + BET_BLOCK_INTERVAL);\r\n\r\n        return true;\r\n    }\r\n\r\n    /**\r\n     * @dev 배팅 결과값을 확인하고 팟머니를 분배\r\n     * 정답 실패 : 팟머니 축적, 정답 맞춤 : 팟머니 획득, 한글자 맞춤 or 정답 확인 불가 : 배팅 금액만 환불\r\n     */\r\n    // Distribute(검증), 값이 틀리면 팟머니에 저장, 맞으면 돌리는 연산\r\n    function distribute() public {\r\n        // Queue에 저장 된 배팅 정보 -> head 3 4 5 6 7 8 9 10 (새로운 정보는 여기서부터)11 22 tail\r\n        // 언제 멈추는지? 더 이상 정답을 확인 할 수 없을 때(정답 배팅을 한 블록이 아직 채굴되지 않았을 때)\r\n        uint256 cur;\r\n        uint256 transferAmount;\r\n        BetInfo memory b;\r\n        BlockStatus currentBlockStatus;\r\n        BettingResult currentBettingResult;\r\n\r\n        for (cur = _head; cur < _tail; cur++) {\r\n            b = _bets[cur];\r\n            currentBlockStatus = getBlockStatus(b.answerBlockNumber); // 현재 블록의 상태\r\n            \r\n            // Checkable, 확인 가능 할 때\r\n            // block.number > answerBlockNumber && block.number < BlOCK_LIMIT + answerBlockNumber\r\n            if (currentBlockStatus == BlockStatus.Checkable) {\r\n                bytes32 answerBlockHash = getAnswerBlockHash(b.answerBlockNumber);\r\n                currentBettingResult = isMatch(b.challenges, answerBlockHash);\r\n\r\n                // if win : bettor가 팟머니를 가져감\r\n                if (currentBettingResult == BettingResult.Win) {\r\n                    // 팟머니 이동 후 0으로 초기화\r\n                    transferAmount = transferAfterPayingFee(b.bettor, _pot + BET_AMOUNT);\r\n                    _pot = 0; // transfer가 아닌 call이나 send 사용 시 순서를 위로\r\n\r\n                    emit WIN(cur, b.bettor, transferAmount, b.challenges, answerBlockHash[0], b.answerBlockNumber);\r\n                }\r\n                \r\n                // if fail : bettor의 돈이 팟으로 감\r\n                if (currentBettingResult == BettingResult.Fail) {\r\n                    // 팟머니 + 배팅 금액\r\n                    _pot += BET_AMOUNT;\r\n\r\n                    emit FAIL(cur, b.bettor, 0, b.challenges, answerBlockHash[0], b.answerBlockNumber);\r\n                }\r\n\r\n                // if darw(한글자만 맞췄을 때) : bettor의 돈이 환불이 됨\r\n                if (currentBettingResult == BettingResult.Draw) {\r\n                    // 배팅한 돈만큼 환불\r\n                    transferAmount = transferAfterPayingFee(b.bettor, BET_AMOUNT);\r\n\r\n                    emit DRAW(cur, b.bettor, transferAmount, b.challenges, answerBlockHash[0], b.answerBlockNumber);\r\n                }\r\n            }\r\n\r\n            // NotRevealed, 블록 체크가 불가능 할 때(아직 채굴되지 않았을 때)\r\n            // block.number <= answerBlockNumber\r\n            if (currentBlockStatus == BlockStatus.NotRevealed) { \r\n                break;\r\n            }\r\n\r\n            // BlockLimitPassed, 블록 제한이 지났을 때\r\n            // block.number >= answerBlockNumber + BLOCK_LIMIT\r\n            if (currentBlockStatus == BlockStatus.BlockLimitPassed) { \r\n                // 환불\r\n                transferAmount = transferAfterPayingFee(b.bettor, BET_AMOUNT);\r\n\r\n                emit REFUND(cur, b.bettor, transferAmount, b.challenges, b.answerBlockNumber);\r\n            }\r\n\r\n            // 정답 체크\r\n            popBet(cur);\r\n        }\r\n        _head = cur; // 헤드 업데이트\r\n    }\r\n\r\n    function transferAfterPayingFee(address payable addr, uint256 amount) internal returns (uint256) {\r\n        // uint256 fee = amount / 100; // 수수료\r\n        uint256 fee = 0;\r\n        uint256 amountWithoutFee = amount - fee;\r\n\r\n        // transfer to addr\r\n        addr.transfer(amountWithoutFee);\r\n\r\n        // transfer to owner\r\n        owner.transfer(fee);\r\n\r\n        // 스마트 컨트랙트에서 이더를 전송하는 방법\r\n        // 1: call, 2: send, **3: transfer\r\n\r\n        return amountWithoutFee;\r\n    }\r\n\r\n    function setAnswerForTest(bytes32 answer) public returns (bool result) {\r\n        require(msg.sender == owner, \"Only owner can set the answer for test mode\");\r\n        answerForTest = answer;\r\n        return true;\r\n    }\r\n    function getAnswerBlockHash(uint256 answerBlockNumber) internal view returns (bytes32 answer) {\r\n        return mode ? blockhash(answerBlockNumber) : answerForTest;\r\n    }\r\n\r\n    /**\r\n     * @dev 배팅 글자와 정답을 확인\r\n     * @param challenges 배팅 글자\r\n     * @param answer 블록해쉬\r\n     * return : 정답 결과\r\n     */\r\n    function isMatch(byte challenges, bytes32 answer) public pure returns (BettingResult) {\r\n        // challenges 0xab      // 1 byte\r\n        // answer 0xab....ff    // 32 bytes\r\n        \r\n        // 순서대로 글자를 뽑아서 비교\r\n        byte c1 = challenges;\r\n        byte c2 = challenges;\r\n        \r\n        byte a1 = answer[0];\r\n        byte a2 = answer[0];\r\n\r\n        // 첫 번째 숫자 가져오기(시프트 연산)\r\n        c1 = c1 >> 4; // 오른쪽으로 시프팅, 0xab -> 0x0a\r\n        c1 = c1 << 4; // 왼쪽으로 시프팅, 0x0a -> 0xa0\r\n\r\n        a1 = a1 >> 4;\r\n        a1 = a1 << 4;\r\n\r\n        // 두 번째 숫자 가져오기\r\n        c2 = c2 << 4; // 왼쪽으로 시프팅, 0xab -> 0xb0\r\n        c2 = c2 >> 4; // 오른쪽으로 시프팅, 0xb0 -> 0x0b\r\n\r\n        a2 = a2 << 4;\r\n        a2 = a2 >> 4;\r\n\r\n        if (a1 == c1 && a2 == c2) {\r\n            return BettingResult.Win;\r\n        }\r\n        if (a1 == c1 || a2 == c2) {\r\n            return BettingResult.Draw;\r\n        }\r\n\r\n        return BettingResult.Fail;\r\n    }\r\n\r\n    function getBlockStatus(uint256 answerBlockNumber) internal view returns (BlockStatus) {\r\n        if (block.number > answerBlockNumber && block.number < BLOCK_LIMIT + answerBlockNumber) {\r\n            return BlockStatus.Checkable;\r\n        }\r\n        if (block.number <= answerBlockNumber) {\r\n            return BlockStatus.NotRevealed;\r\n        }\r\n        if (block.number >= answerBlockNumber + BLOCK_LIMIT) {\r\n            return BlockStatus.BlockLimitPassed;\r\n        }\r\n        \r\n        return BlockStatus.BlockLimitPassed; // default\r\n    }\r\n    \r\n\r\n    function getBetInfo(uint256 index) public view returns(uint256 answerBlockNumber, address bettor, byte challenges) {\r\n        BetInfo memory b = _bets[index]; // 인덱스가 3번까지만 저장되어있더라도 5번에 있는 값을 다 불러 올 수 있고, 다만 그 값들은 0으로 초기화 되어있음\r\n        answerBlockNumber = b.answerBlockNumber;\r\n        bettor = b.bettor;\r\n        challenges = b.challenges;\r\n    }\r\n    function pushBet(byte challenges) internal returns (bool) {\r\n        BetInfo memory b;\r\n        b.bettor = msg.sender;\r\n        b.answerBlockNumber = block.number + BET_BLOCK_INTERVAL; // block.number : 현재 이 트랜잭션에 들어가는 블록의 값\r\n        b.challenges = challenges;\r\n\r\n        _bets[_tail] = b;\r\n        _tail++; // safemath? integerOverflow?\r\n\r\n        return true;\r\n    }\r\n    function popBet(uint256 index) internal returns (bool) {\r\n        // map에 있는 값을 삭제 = 상태 데이터베이스의 값을 삭제\r\n        // 삭제 시 가스를 돌려받음\r\n        delete _bets[index];// 필요하지 않은 값에 대해서는 삭제를 해주는게 좋음\r\n        return true;\r\n    }\r\n}",
  "sourcePath": "C:\\Users\\GGOM\\Desktop\\block\\Selfstudy\\Lottery\\LotteryDapp\\contracts\\Lottery.sol",
  "compiler": {
    "name": "solc",
    "version": "0.6.0+commit.26b70077.Emscripten.clang"
  },
  "schemaVersion": "3.4.3",
  "updatedAt": "2021-10-28T01:09:35.093Z",
  "networkType": "ethereum",
  "devdoc": {
    "methods": {
      "bet(bytes1)": {
        "details": "배팅 시 유저는 0.005 ETH와 1 byte 크기의 배팅용 글자를 보내야 함",
        "params": {
          "challenges": "배팅 시 유저가 보내는 글자 return : 함수가 잘 수행되었는지 확인하는 bool값 큐에 저장 된 배팅 정보는 이후 distribute 함수에서 해결 됨"
        }
      },
      "betAndDistribute(bytes1)": {
        "details": "배팅과 정답 체크를 함",
        "params": {
          "challenges": "배팅 시 유저가 보내는 글자 return : 함수가 잘 수행되었는지 확인하는 bool값"
        }
      },
      "distribute()": {
        "details": "배팅 결과값을 확인하고 팟머니를 분배 정답 실패 : 팟머니 축적, 정답 맞춤 : 팟머니 획득, 한글자 맞춤 or 정답 확인 불가 : 배팅 금액만 환불"
      },
      "isMatch(bytes1,bytes32)": {
        "details": "배팅 글자와 정답을 확인",
        "params": {
          "answer": "블록해쉬 return : 정답 결과",
          "challenges": "배팅 글자"
        }
      }
    }
  },
  "userdoc": {
    "methods": {}
  }
}